{"abi":[{"type":"constructor","inputs":[{"name":"_tokenAddress","type":"address","internalType":"address"}],"stateMutability":"nonpayable"},{"type":"function","name":"balanceOf","inputs":[{"name":"","type":"address","internalType":"address"}],"outputs":[{"name":"","type":"uint256","internalType":"uint256"}],"stateMutability":"view"},{"type":"function","name":"stake","inputs":[{"name":"_tokenAdress","type":"address","internalType":"address"},{"name":"_amt","type":"uint256","internalType":"uint256"}],"outputs":[],"stateMutability":"nonpayable"},{"type":"function","name":"tokenAddress","inputs":[],"outputs":[{"name":"","type":"address","internalType":"address"}],"stateMutability":"view"}],"bytecode":{"object":"0x608060405234801561000f575f5ffd5b506040516104b83803806104b8833981810160405281019061003191906100d4565b805f5f6101000a81548173ffffffffffffffffffffffffffffffffffffffff021916908373ffffffffffffffffffffffffffffffffffffffff160217905550506100ff565b5f5ffd5b5f73ffffffffffffffffffffffffffffffffffffffff82169050919050565b5f6100a38261007a565b9050919050565b6100b381610099565b81146100bd575f5ffd5b50565b5f815190506100ce816100aa565b92915050565b5f602082840312156100e9576100e8610076565b5b5f6100f6848285016100c0565b91505092915050565b6103ac8061010c5f395ff3fe608060405234801561000f575f5ffd5b506004361061003f575f3560e01c806370a08231146100435780639d76ea5814610073578063adc9772e14610091575b5f5ffd5b61005d60048036038101906100589190610224565b6100ad565b60405161006a9190610267565b60405180910390f35b61007b6100c2565b604051610088919061028f565b60405180910390f35b6100ab60048036038101906100a691906102d2565b6100e6565b005b6001602052805f5260405f205f915090505481565b5f5f9054906101000a900473ffffffffffffffffffffffffffffffffffffffff1681565b5f5f9054906101000a900473ffffffffffffffffffffffffffffffffffffffff1673ffffffffffffffffffffffffffffffffffffffff168273ffffffffffffffffffffffffffffffffffffffff161461013d575f5ffd5b808273ffffffffffffffffffffffffffffffffffffffff1663dd62ed3e33306040518363ffffffff1660e01b8152600401610179929190610310565b602060405180830381865afa158015610194573d5f5f3e3d5ffd5b505050506040513d601f19601f820116820180604052508101906101b8919061034b565b10156101c2575f5ffd5b5050565b5f5ffd5b5f73ffffffffffffffffffffffffffffffffffffffff82169050919050565b5f6101f3826101ca565b9050919050565b610203816101e9565b811461020d575f5ffd5b50565b5f8135905061021e816101fa565b92915050565b5f60208284031215610239576102386101c6565b5b5f61024684828501610210565b91505092915050565b5f819050919050565b6102618161024f565b82525050565b5f60208201905061027a5f830184610258565b92915050565b610289816101e9565b82525050565b5f6020820190506102a25f830184610280565b92915050565b6102b18161024f565b81146102bb575f5ffd5b50565b5f813590506102cc816102a8565b92915050565b5f5f604083850312156102e8576102e76101c6565b5b5f6102f585828601610210565b9250506020610306858286016102be565b9150509250929050565b5f6040820190506103235f830185610280565b6103306020830184610280565b9392505050565b5f81519050610345816102a8565b92915050565b5f602082840312156103605761035f6101c6565b5b5f61036d84828501610337565b9150509291505056fea2646970667358221220a626df8048c8afddbb5be19d84c6c91b741572f522467ac6ea4fe6851b77a55f64736f6c63430008220033","linkReferences":{}},"methodIdentifiers":{"balanceOf(address)":"70a08231","stake(address,uint256)":"adc9772e","tokenAddress()":"9d76ea58"},"id":24}